:020000040000FA
:100000000C946F000C9497000C9497000C9497003C
:100010000C9497000C9497000C9497000C94970004
:100020000C9497000C9497000C9497000C949700F4
:100030000C9497000C9497000C9497000C949700E4
:100040000C9447060C9497000C94B7060C949106F8
:100050000C9497000C9497000C9497000C949700C4
:100060000C94E9060C949700084AD73B3BCE016EEE
:1000700084BCBFFDC12F3D6C74319ABD56833DDAFF
:100080003D00C77F11BED9E4BB4C3E916BAAAABE0E
:10009000000000803F0000000000250028002B0029
:1000A000040404040404040402020202020203031E
:1000B0000303030301020408102040800102040826
:1000C00010200102040810200000000800020100B6
:1000D00000030407000000000000000008081124CD
:1000E0001FBECFEFD8E0DEBFCDBF11E0A0E0B1E092
:1000F000E2EFF9E202C005900D92A43DB107D9F7F5
:1001000023E0A4EDB1E001C01D92AA3EB207E1F7E1
:1001100010E0CFE6D0E004C02197FE010E94E21477
:10012000CE36D107C9F70E9476080C94F7140C94C8
:10013000000090919602809195022FEF3FEF981763
:1001400048F4E92FF0E0EB58FD4F208130E09F5F4D
:1001500090939602C901089590919602809195021C
:100160002FEF3FEF981748F4E92FF0E0EB58FD4FE1
:10017000208130E09F5F90939602C901089591E03D
:100180009093740280937302109272021092710223
:1001900008958091950290919602891B990B08957C
:1001A00090E0FC01E853FF4F2491FC01EC54FF4F19
:1001B0003491FC01E056FF4FE491EE23C9F0222375
:1001C00039F0233001F1A8F4213019F1223029F15E
:1001D000F0E0EE0FFF1FEA56FF4FA591B4918FB7E5
:1001E000F894EC91611126C030953E233C938FBF6B
:1001F00008952730A9F02830C9F0243049F78091BC
:1002000080008F7D03C0809180008F778093800075
:10021000DFCF84B58F7784BDDBCF84B58F7DFBCFF7
:100220008091B0008F778093B000D2CF8091B000E2
:100230008F7DF9CF3E2BDACF3FB7F8948091210222
:1002400090912202A0912302B091240226B5A89B8E
:1002500005C02F3F19F00196A11DB11D3FBFBA2F58
:10026000A92F982F8827BC01CD01620F711D811D18
:10027000911D42E0660F771F881F991F4A95D1F79D
:1002800008958F929F92AF92BF92CF92DF92EF929A
:10029000FF924B015C010E941C016B017C010E94DA
:1002A0001C016C197D098E099F09683E7340810508
:1002B0009105A8F321E0821A9108A108B10888EEFF
:1002C000C80E83E0D81EE11CF11C81149104A10426
:1002D000B10429F7FF90EF90DF90CF90BF90AF90DF
:1002E0009F908F90089508950895AF92BF92CF92F6
:1002F000DF92EF92FF920F931F93CF93DF936C01E6
:100300007B018B01040F151FEB015E01AE18BF08C6
:10031000C017D10759F06991D601ED91FC91019078
:10032000F081E02DC6010995892B79F7C501DF9190
:10033000CF911F910F91FF90EF90DF90CF90BF90E2
:10034000AF900895FC01538D448D252F30E0842F0C
:1003500090E0821B930B541710F0CF9608950197ED
:100360000895FC01918D828D981761F0A28DAE0FDA
:10037000BF2FB11D5D968C91928D9F5F9F73928F61
:1003800090E008958FEF9FEF0895FC01918D828D8D
:10039000981731F0828DE80FF11D858D90E008955A
:1003A0008FEF9FEF0895FC01918D228D892F90E0B2
:1003B000805C9F4F821B91098F739927089587E96D
:1003C00092E00E94D30121E0892B09F420E0822FE2
:1003D000089580E090E0892B29F00E94DF018111CF
:1003E0000C9400000895FC01A48DA80FB92FB11D35
:1003F000A35ABF4F2C91848D90E001968F7399275B
:10040000848FA689B7892C93A089B1898C91837038
:1004100080648C93938D848D981306C00288F38931
:10042000E02D80818F7D80830895EF92FF920F935E
:100430001F93CF93DF93EC0181E0888F9B8D8C8D90
:1004400098131AC0E889F989808185FF15C09FB784
:10045000F894EE89FF896083E889F9898081837047
:10046000806480839FBF81E090E0DF91CF911F91F6
:100470000F91FF90EF900895F62E0B8D10E00F5F17
:100480001F4F0F731127E02E8C8D8E110CC00FB6ED
:1004900007FCFACFE889F989808185FFF5CFCE0185
:1004A0000E94F301F1CFEB8DEC0FFD2FF11DE35A0C
:1004B000FF4FF0829FB7F8940B8FEA89FB89808108
:1004C0008062CFCFCF93DF93EC01888D8823B9F082
:1004D000AA89BB89E889F9898C9185FD03C080814F
:1004E00086FD0DC00FB607FCF7CF8C9185FFF2CFCC
:1004F000808185FFEDCFCE010E94F301E9CFDF912E
:10050000CF9108952091F501260F3327331F213213
:100510003105ECF420916B02FC0190E080E0243086
:1005200069F082E00895A091F5012191AC014B5250
:100530005E4FA40FB52FB11D2C930196861798F32B
:100540008091F501680F6093F50180E0089581E0E6
:10055000089510926B0281E080936A021092650206
:1005600061E082E10E94D00061E083E10E94D0005E
:10057000E9EBF0E080818E7F808380818D7F8083B6
:1005800088E48093B80085E48093BC000895CF93FD
:10059000DF9391E09093D4018823B9F0C091B80023
:1005A000D091BA008091BC008A7B8093BC0060E04F
:1005B00082E10E94D00060E083E10E94D0000E94AE
:1005C000A902D093BA00C093B800DF91CF910895EB
:1005D000CF92DF92EF92FF920F931F93CF93DF930F
:1005E000D091710281E0D13208F09CC0C0917302B9
:1005F0000E941C016B017C0180916B0281116CC017
:1006000082E080936B0281E080936A028FEF809397
:10061000690210926802D0936702A5E2B2E0E5E4B5
:10062000F2E080E0D8138DC01092660280916602DD
:10063000CC0FC82BC093660280916502813009F00F
:1006400084C0109265020E941C016B017C018091A4
:1006500066028093BB0080916D0290916E02A09122
:100660006F02B0917002892B8A2B8B2BA1F00E9414
:100670001C0100916D0210916E0220916F02309169
:1006800070026C197D098E099F0906171707280744
:10069000390708F442C08091BC0083FDD8CF85ECB7
:1006A0008093BC000E941C016B017C0180916B0255
:1006B000823009F44CC0809169028F3F09F469C00F
:1006C00080916902803209F466C0809169028033AA
:1006D00009F463C084E026C080916D0290916E029F
:1006E000A0916F02B0917002892B8A2B8B2B09F499
:1006F00083CF0E941C0100916D0210916E02209127
:100700006F02309170026C197D098E099F090617DE
:1007100017072807390708F06FCF80916C020E94F5
:10072000C70285E010927202109271021092740258
:10073000DF91CF911F910F91FF90EF90DF90CF90BD
:1007400008959D9191938F5F6DCF85EEA9CF809194
:100750006D0290916E02A0916F02B0917002892B90
:100760008A2B8B2B09F4A2CF0E941C0100916D02F1
:1007700010916E0220916F02309170026C197D0908
:100780008E099F09061717072807390708F08ECF2B
:10079000C4CF80E0C7CF82E0C5CF83E0C3CF089548
:1007A000E091960280919502E81730F4F0E0EB5862
:1007B000FD4F808190E008958FEF9FEF0895CF92D5
:1007C000DF92EF92FF920F931F93CF93DF937C0101
:1007D000CB018A0120917402222389F0EB016B0185
:1007E000C40ED51ECC15DD0569F06991D701ED91D8
:1007F000FC910190F081E02DC7010995F3CF642FA2
:100800000E948202C801DF91CF911F910F91FF904A
:10081000EF90DF90CF900895CF93DF931F92CDB7E5
:10082000DEB76983209174022223F9F020917102CE
:10083000203258F021E030E0FC013383228390E045
:1008400080E00F90DF91CF91089580917202E82FA0
:10085000F0E0EB5DFD4F998190838F5F8093720292
:100860008093710281E090E0ECCF61E0CE010196CF
:100870000E948202F7CF682F84E393E00C940C046B
:1008800090E080E008958F929F92AF92BF92CF92B6
:10089000DF92EF92FF921F93CF93DF93D82F162F03
:1008A0000E941C016B017C0180916B02811166C06A
:1008B000C12F81E080936B0280936A029FEF909337
:1008C000690210926802910F90936702809366020A
:1008D00080916602DD0FD82BD0936602809165026D
:1008E000813009F082C0109265020E941C016B01E8
:1008F0007C01809166028093BB0080916D02909193
:100900006E02A0916F02B0917002892B8A2B8B2B03
:10091000A1F00E941C0180906D0290906E02A09048
:100920006F02B09070026C197D098E099F098616BE
:100930009706A806B90608F442C08091BC0083FD62
:10094000D8CF85EC8093BC000E941C016B017C0118
:1009500080916B02813009F44AC08091680281174E
:1009600010F4C0916802A5E4B2E0E5E7F2E080E0AF
:100970008C1751F19D9191938F5FFACF80916D0209
:1009800090916E02A0916F02B0917002892B8A2B18
:100990008B2B09F489CF0E941C0180906D029090EE
:1009A0006E02A0906F02B09070026C197D098E09E2
:1009B0009F0986169706A806B90608F075CF80919C
:1009C0006C020E94C702C0E010929602C09395028A
:1009D0008C2FDF91CF911F91FF90EF90DF90CF9000
:1009E000BF90AF909F908F90089585EEABCF809190
:1009F0006D0290916E02A0916F02B0917002892BEE
:100A00008A2B8B2B09F4A4CF0E941C0180906D02CD
:100A100090906E02A0906F02B09070026C197D09E8
:100A20008E099F0986169706A806B90608F090CF8A
:100A3000C6CFFF920F931F93CF93DF938091400314
:100A40000E94BF008BE390E00E943B040E94E802FA
:100A500066E070E080914003909141030E9443045E
:100A60008091950290919602891B990B069741F50A
:100A7000CEE5D3E00E94AC00F82E0E94AC0000E06E
:100A8000802B9F29BC01990F880B990B0E9417118D
:100A900028A939A94AA95BA90E94CD0F688F798F2F
:100AA0008A8F9B8F20E030E040E05AE30E94491299
:100AB000699379938993999383E0CA36D807D1F6DD
:100AC000DF91CF911F910F91FF900895FF920F93A7
:100AD0001F93CF93DF9388E60E94BF0083E490E0EA
:100AE0000E943B040E94E80266E070E088E690E025
:100AF0000E9443048091950290919602891B990B64
:100B0000069741F5CAE6D3E00E94AC00F82E0E9499
:100B1000AC0000E0802B9F29BC01990F880B990B3A
:100B20000E94171128A939A94AA95BA90E94CD0FD3
:100B3000688F798F8A8F9B8F23E333E343E852E4F6
:100B40000E946E10699379938993999383E0C637D5
:100B5000D807D1F6DF91CF911F910F91FF900895A3
:100B6000FC0101900020E9F73197AF01481B590BB8
:100B7000BC0187E992E00C9475018F929F92AF922D
:100B8000BF920F931F93CF93DF93CDB7DEB7A1979B
:100B90000FB6F894DEBF0FBECDBF19A2423008F4E5
:100BA0004AE08E010F5D1F4F842E912CB12CA12C99
:100BB000A50194010E942A13E62FB901CA01EA3067
:100BC000F4F4E05DD801EE938D01232B242B252B2B
:100BD00079F790E080E0109719F0CD010E94B00500
:100BE000A1960FB6F894DEBF0FBECDBFDF91CF91B7
:100BF0001F910F91BF90AF909F908F900895E95CE7
:100C0000E1CFCF93DF930E94B005EC018CE291E03D
:100C10000E94B0058C0F9D1FDF91CF91089585ED47
:100C20008093BC0080916D0290916E02A0916F0242
:100C3000B09170020796A11DB11D23E0B695A7954E
:100C4000979587952A95D1F72091BC0024FD03C084
:100C500010926B02089540916D0250916E02609166
:100C60006F0270917002452B462B472B69F300975A
:100C7000A105B10541F02AE22A95F1F700C00197DC
:100C8000A109B109E1CF80916C020C94C7021F92B7
:100C90000F920FB60F9211242F933F938F939F9330
:100CA000AF93BF9380911D0290911E02A0911F02ED
:100CB000B091200230911C0223E0230F2D3758F50C
:100CC0000196A11DB11D20931C0280931D029093DB
:100CD0001E02A0931F02B0932002809121029091E6
:100CE0002202A0912302B09124020196A11DB11D00
:100CF0008093210290932202A0932302B0932402B6
:100D0000BF91AF919F918F913F912F910F900FBE07
:100D10000F901F90189526E8230F0296A11DB11D74
:100D2000D2CF1F920F920FB60F9211242F933F93A1
:100D30004F935F936F937F938F939F93AF93BF93E3
:100D4000EF93FF9387E992E00E94F301FF91EF9107
:100D5000BF91AF919F918F917F916F915F914F91D3
:100D60003F912F910F900FBE0F901F9018951F92DB
:100D70000F920FB60F9211242F938F939F93EF939F
:100D8000FF93E091A702F091A8028081E091AD026B
:100D9000F091AE0282FD1BC090818091B0028F5F06
:100DA0008F732091B102821741F0E091B002F0E020
:100DB000E956FD4F958F8093B002FF91EF919F917F
:100DC0008F912F910F900FBE0F901F9018958081DB
:100DD000F4CF1F920F920FB60F9211242F933F93CF
:100DE0004F935F936F937F938F939F93AF93BF9333
:100DF000EF93FF938091B900887F803609F44AC051
:100E0000F0F5883209F4A7C018F5803109F49BC0C9
:100E1000B8F4882309F4F9C0883009F494C0FF912C
:100E2000EF91BF91AF919F918F917F916F915F9162
:100E30004F913F912F910F900FBE0F901F901895DB
:100E4000883109F488C0803251F78093690214C058
:100E5000803409F49DC040F48033B9F38833F9F647
:100E60008093690285ECB0C0803509F485C088356F
:100E700009F496C0883499F60E940F06D0CF8839BD
:100E800009F48CC038F5883729F050F4883611F011
:100E9000803729F683E080936B021092170257C0C7
:100EA000883809F47BC0803919F0803809F0B7CF51
:100EB00080911702803208F071C0E091170281E042
:100EC0008E0F809317028091BB00F0E0E950FE4F37
:100ED00080833DC0803B39F0E0F4803A09F479C06A
:100EE000883A09F09CCF84E080936B021092F6015F
:100EF0001092F501E0911A02F0911B020995809180
:100F0000F50181110FC081E08093F5011092D501A8
:100F100009C0803C09F4A6CF883C09F4A3CF883BE4
:100F200009F07DCFE091F60181E08E0F8093F6010C
:100F3000F0E0EB52FE4F80818093BB009091F60170
:100F40008091F50129C0809166028093BB0085ECF9
:100F50008093BC0064CF90916802809167029817DB
:100F600058F5E091680281E08E0F80936802F0E00E
:100F7000EB5BFD4F8081E9CFE091680281E08E0F4D
:100F8000809368028091BB00F0E0EB5BFD4F8083B3
:100F900090916802809167029817C8F285E8D8CFCF
:100FA000E091680281E08E0F809368028091BB001F
:100FB000F0E0EB5BFD4F808380916A0281115CCF92
:100FC00081E08093650284EA8093BC0010926B02FA
:100FD00026CF85EC8093BC0010926B0280911702A3
:100FE000803230F4E0911702F0E0E950FE4F1082B9
:100FF0006091170270E0E0911802F091190287EFFA
:1010000091E00995109217020ACF1092690234CF2D
:10101000E7E9F2E01382128288EE93E0A0E0B0E00C
:1010200084839583A683B7832CE031E031832083CA
:1010300025EC30E03587248724EC30E0378726879D
:1010400020EC30E0318B208B21EC30E0338B228B95
:1010500022EC30E0358B248B26EC30E0378B268B6E
:10106000118E128E138E148EE4E3F3E0138212823B
:1010700084839583A683B7838EE191E091838083F7
:10108000E0E4F3E012821382148215821682178242
:1010900010861186128A138A148A158A168A178A6C
:1010A000108E118E128E138E148E158E1092A60332
:1010B0001092A7031092A8031092A9031092AA03FA
:1010C0001092AB031092AC031092AD0382E090E05B
:1010D0009093AF038093AE0388E0E0E0F1E0A0EBF3
:1010E000B3E001900D928A95E1F70895CF93DF93D5
:1010F000CDB7DEB7AD970FB6F894DEBF0FBECDBF4C
:10110000789484B5826084BD84B5816084BD85B5E2
:10111000826085BD85B5816085BD80916E008160EE
:1011200080936E0010928100809181008260809394
:101130008100809181008160809381008091800096
:101140008160809380008091B10084608093B100C1
:101150008091B00081608093B00080917A008460BB
:1011600080937A0080917A00826080937A008091E7
:101170007A00816080937A0080917A008068809301
:101180007A001092C100E091A702F091A80282E0DB
:101190008083E091A302F091A4021082E091A50265
:1011A000F091A6028FEC80831092AF02E091AB0227
:1011B000F091AC0286E08083E091A902F091AA024E
:1011C000808180618083E091A902F091AA028081F0
:1011D00088608083E091A902F091AA0280818068F2
:1011E0008083E091A902F091AA0280818F7D8083A3
:1011F0008FE291E00E94010686E790E09093BD03A4
:101200008093BC0310929602109295021092720283
:10121000109271020E94A90283E791E090931B0251
:1012200080931A0284E791E0909319028093180248
:101230006AEF70E080E090E00E9441018091BC0381
:101240000E94BF0088E890E00E943B040E94E802F0
:1012500068E170E08091BC039091BD030E9443045B
:101260008091950290919602891B990B489709F0FD
:1012700049C00E94AC007C010E94AC0020E0382FE5
:101280002E293F293093B9032093B8030E94AC0064
:101290007C010E94AC0020E0382F2E293F2930939A
:1012A000CF032093CE030E94AC007C010E94AC00CF
:1012B00020E0382F2E293F293093D1032093D003EB
:1012C0000E94AC007C010E94AC0020E0382F2E2947
:1012D0003F293093BB032093BA0336EDE32E33E06E
:1012E000F32E0E94AC006C010E94AC0000E0C02A0A
:1012F000D82AF701C192D1927F01F6EEEF16F3E002
:10130000FF0679F78091BC030E94BF0084EF90E054
:101310000E943B0487E590E00E943B040E94E802A3
:101320008091BC030E94BF0085EF90E00E943B04C7
:1013300084E190E00E943B040E94E80264E670E0D1
:1013400080E090E00E9441012AEF30E03BA32AA315
:101350001E8E1F8E18A219A28091BC030E94BF008E
:1013600087EF90E00E943B040E94E80266E070E094
:101370008091BC039091BD030E9443040E94AC0085
:101380006C010E94AC000D2C000CEE08FF08B601A9
:10139000552744276C01990FEE08FF08FE2CED2C11
:1013A000DC2CCC24C42AD52AE62AF72A0E94AC00D9
:1013B000092E000CAA0BBB0B8C299D29AE29BF2935
:1013C00024E0B695A795979587952A95D1F78093B0
:1013D000C6039093C703A093C803B093C903809139
:1013E000950290919602891B990B03970CF48EC07D
:1013F0000E94AC006C010E94AC000D2C000CEE08A9
:10140000FF089601112700276C01990FEE08FF08CD
:10141000FE2CED2CDC2CCC24C02AD12AE22AF32A83
:101420000E94AC00092E000CAA0BBB0B8C299D2935
:10143000AE29BF2924E0B695A795979587952A955B
:10144000D1F78093C2039093C303A093C403B093D6
:10145000C5034091B8035091B90370E060E06C019E
:101460007D0134E0F594E794D794C7943A95D1F789
:10147000C41AD50AE60AF70AE3E0B595A795979549
:101480008795EA95D1F7440F551F661F771F4C01CA
:101490005D01841A950AA60AB70AA5019401A091D4
:1014A000CE03B091CF030E9457134B015C01ABE018
:1014B000B594A79497948794AA95D1F7A70196011C
:1014C000C701B6010E941A139B01AC01BCE05595FF
:1014D000479537952795BA95D1F7A091D003B0914C
:1014E000D1030E9457131EE09595879577956795D0
:1014F0001A95D1F7860E971EA81EB91E8092BE03BC
:101500009092BF03A092C003B092C1038091BE032A
:101510009091BF03A091C003B091C1036C017D0104
:10152000FF0CCC08DC2C76019C01AD016C2D7C2DD0
:101530008C2D9C2D345F414051096109710981094D
:1015400091092D87398B4D8B5E8B6F8B788F898FAF
:101550009A8F59016A017B018C010E945F132B8FC6
:101560003C8F4D8F59A76AA77BA78CA79DA7309169
:10157000D7032091D603932F990F990B492F592FF9
:10158000692F792F892F0E945F130CE00E948E141F
:1015900039014A01562E472E382E292E3091D90373
:1015A0002091D803932F990F990BAB8CBC8CCD8CC9
:1015B000D9A4EAA4FBA40CA51DA5492F592F692F76
:1015C000792F892F0E945F1308E00E94A71453010E
:1015D0006401E52CF42C032D122D0E94C4147058C4
:1015E0008F4F9F4F2090BA033090BB035101C12C05
:1015F000D12CE12CF12C00E010E00E945F1301E2FD
:101600000E94A7142CA33DA34EA35FA368A7272E77
:10161000382E492EA0E00E94D61409F411C330914F
:10162000DF032091DE03932F990F990BAB8CBC8CB9
:10163000CD8CD9A4EAA4FBA40CA51DA5492F592F34
:10164000692F792F892F0E945F1339014A01562E85
:101650007B8F8C8F9D8F3091DD032091DC03932F46
:10166000990F990BAD84B988CD88DE88EF88F88C06
:10167000098D1A8D492F592F692F792F892F0E9493
:101680005F1301E10E948E1453016401E52CFB8C71
:101690000C8D1D8D0E94C41459016A017B01182F05
:1016A000592E8091C6039091C703A091C803B091B1
:1016B000C90320E030E040E150E0281B390B4A0B21
:1016C0005B0B39014A01990C6608762C4301662DA3
:1016D000762D862D962D0FE10E948E1439014A0138
:1016E000B62FA72FF82FE92F3091DB032091DA03D3
:1016F000932F990F990B492F592F692F792F892FE4
:1017000003E20E948E14012F152D0E94C41459016A
:101710006A017B018C019301A4016B2F7A2F8F2F1B
:101720009E2F0E94CD14E5E3AE2EFCE0BF2EC12C0F
:10173000D12CE12CF12C00E010E00E945F13ACA052
:10174000BDA0CEA0DFA0E8A4F22C032D142D0E9492
:10175000B9132D87398B4D8B5E8B6F8B788F898F6B
:101760009A8F0DE00E94A714322E432E542E652E20
:10177000762E872E982E292E3091E5032091E403B2
:10178000932F990F990BA32CB42CC52CD62CE72C96
:10179000F82C092D122D492F592F692F792F892FB8
:1017A0000E945F130E945F1309E10E94A714AD8499
:1017B000B988CD88DE88EF88F88C098D1A8D0E9453
:1017C000C41419012A013B014C013091E30320911B
:1017D000E203932F990F990B492F592F692F792FD6
:1017E000892F0E945F1303E10E94A71459016A0127
:1017F0007B018C019101A201B301C4010E94C414B8
:1018000008E00E94A71459016A017B01E82F192FF3
:101810003091E1032091E003932F990F990B492F09
:10182000592F692F792F892F04E00E948E140E2FD3
:101830000E94C4140E940F1120E030E040E85BE3F6
:101840000E9449129B01AC016E8D7F8D88A199A1E8
:101850000E94CE0F6E8F7F8F88A399A362E370E002
:1018600080E090E00E9441014AA15BA141505109F2
:101870005BA34AA3452B09F06FCD20E030E04AE797
:1018800053E46E8D7F8D88A199A10E946E106093A4
:10189000E6037093E7038093E8039093E9038CE4F5
:1018A00091E00E94010610928E0310928F03109215
:1018B00090031092910310929A0310929B0310923E
:1018C0009C0310929D031092920310929303109226
:1018D00094031092950310929E0310929F0310920E
:1018E000A0031092A10310929603109297031092F6
:1018F0009803109299031092A2031092A3031092DE
:10190000A4031092A50388E690E09093410380938E
:101910004003109296021092950210927202109259
:1019200071020E94A90283E791E090931B028093C9
:101930001A0284E791E090931902809318026AEFEB
:1019400070E080E090E00E944101809140030E949D
:10195000BF008BE690E00E943B0488E090E00E948C
:101960003B040E94E802809140030E94BF008AE18C
:1019700090E00E943B0485E090E00E943B040E94BE
:10198000E80288E60E94BF008BE190E00E943B04E1
:1019900088E090E00E943B040E94E80280914003AE
:1019A0000E94BF008CE190E00E943B0488E190E03F
:1019B0000E943B040E94E80219821A821B821C8248
:1019C0001D821E821F82188619861A861B861C8617
:1019D00064E670E080E090E00E9441015CE2C52E88
:1019E000DD24D394412C512C32015E015DE0A50E23
:1019F000B11C0E94190520E030E040E85FE3C3011C
:101A0000B2010E94CE0F2B013C018E010F5F1F4FD0
:101A100046E7842E43E0942E78010D87198BF70159
:101A200061917191819191917F01F40121913191A5
:101A3000419151914F011701F4E02F1A31080E9492
:101A4000CE0FF1016083718382839383AE14BF0450
:101A500031F76AE070E080E090E00E944101F1E03F
:101A6000CF1AD10831F63EE8C32E33E0D32EF80169
:101A700061917191819191918F01A30192010E94D5
:101A80006E10F60161937193819391936F01E0164B
:101A9000F10669F720E030E040E055E460919603FC
:101AA0007091970380919803909199030E94CD0FB4
:101AB0006093960370939703809398039093990390
:101AC0008AE691E00E94010619821A821B821C821A
:101AD0001D821E821F82188619861A861B861C8606
:101AE00024EFC22EDD24D394412C512C320120E06E
:101AF00030E040E85FE3C301B2010E94CE0F2B014A
:101B00003C010E946605ED84F98892E8892E93E0F5
:101B1000992E8701F80161917191819191918F01C5
:101B2000F40121913191419151914F011801F4E05B
:101B30002F1A31080E94CE0FF101608371838283D6
:101B40009383A016B10631F76AE070E080E090E080
:101B50000E944101F1E0CF1AD10849F68AE9C82E66
:101B600083E0D82EF70161917191819191917F016C
:101B7000A30192010E946E10F6016193719381930B
:101B800091936F010E151F0569F78CE891E00E9493
:101B900001068BEA91E00E94010668EE73E080E0A6
:101BA00090E00E94410100E010E08091AA03909132
:101BB000AB03A091AC03B091AD032FB7892B8A2B57
:101BC0008B2B09F041C0F89480911D0290911E0268
:101BD000A0911F02B09120022FBF8093AA0390937F
:101BE000AB03A093AC03B093AD03C0904203D0907D
:101BF0004303E0904403F0904503A7019601C70119
:101C0000B6010E940013882309F435C188EC91E0E5
:101C10000E94B0058CE291E00E94B00564E170E0A2
:101C200080E090E00E9441010115110509F4BDCF4B
:101C30000E94DF01882309F4B8CF0E940000B5CFCD
:101C400020E030E0A90100CEF89460911D0270916F
:101C50001E0280911F02909120022FBFC090AA0304
:101C6000D090AB03E090AC03F090AD036C197D090C
:101C70008E099F090E941511698B7A8B8B8B9C8B27
:101C80000E9466050E941905C0906203D09063030C
:101C9000E0906403F090650340905E0350905F0312
:101CA00060906003709061036091660370916703B8
:101CB00080916803909169039B01AC010E944912D5
:101CC0006D877E878F87988BA3019201C301B20134
:101CD0000E9449122D853E854F8558890E94CE0F5E
:101CE0000E94BC129B01AC01C701B6010E946E109C
:101CF0000E943A1020E030E044E353E40E9449128D
:101D000028ED3FE049E450E40E946E104B015C0175
:101D100080924A0390924B03A0924C03B0924D03E1
:101D2000A7019601C701B6010E9449122D853E8583
:101D30004F8558890E94CE0F0E94BC129B01AC01B6
:101D4000C301B2010E946E100E943A10905820E028
:101D500030E044E353E40E94491228ED3FE049E4B7
:101D600050E40E946E1060934E0370934F03809373
:101D700050039093510320E030E04AE754E469892E
:101D80007A898B899C890E946E106B017C0120915D
:101D90006A0330916B0340916C0350916D030E9474
:101DA00049122091420330914303409144035091E2
:101DB00045030E94CE0F2B013C01A7019601C701EC
:101DC000B6010E94491220E030E040E850E40E9451
:101DD000491220E030E040E850E40E94491220918E
:101DE000B0033091B1034091B2035091B3030E940C
:101DF000CE0F6B017C0120E030E040E151E40E9415
:101E0000CE0F9B01AC01C701B6010E946E106D8719
:101E10007E878F87988BA3019201C501B4010E9430
:101E2000CD0F2D853E854F8558890E944912A3010B
:101E300092010E94CE0F60934203709343038093FC
:101E40004403909345032D853E854F85588960E076
:101E500070E080E89FE30E94CD0FA70196010E94E9
:101E600049126093B0037093B1038093B2039093CF
:101E7000B3032FB7A8CE46015701E894B7F82FEF68
:101E80003FEF4FE75FE7C501B4010E9400138111E6
:101E90000DC02FEF3FEF4FE75FE7C501B4010E9490
:101EA000691018161CF48CEC91E0B2CE2FEF3FEFC6
:101EB0004FE75FE4C701B6010E943C1218161CF4FC
:101EC00080ED91E0A5CE2FEF3FEF4FE75FECC7012C
:101ED000B6010E94691087FDF3CF20E030E0A90130
:101EE000C701B6010E94691087FF09C06DE287E94A
:101EF00092E00E941502F7FAF094F7F8F0942AE0C5
:101F000037ED43EA5BE3C701B6010E94CE0F4B01F8
:101F10005C010E94E0106B017C010E9415119B0185
:101F2000AC01C501B4010E94CD0F4B015C014AE038
:101F3000C701B6010E94BD056EE287E992E00E94EA
:101F4000150220E030E040E251E4C501B4010E94F6
:101F500049124B015C010E94E0106B01F12CE12C55
:101F60004AE0C701B6010E94BD05C701B6010E9443
:101F700015119B01AC01C501B4010E94CD0F20E0F9
:101F800030E040E251E40E9449120E94E01090E0EB
:101F900080E04AE00E94BD053DCE5058BB27AA27ED
:101FA0000E94E50F0C9402120E94F41138F00E9476
:101FB000FB1120F039F49F3F19F426F40C94BA1168
:101FC0000EF4E095E7FB0C94B411E92F0E94131274
:101FD00058F3BA17620773078407950720F079F45E
:101FE000A6F50C9435120EF4E0950B2EBA2FA02D09
:101FF0000B01B90190010C01CA01A0011124FF27B6
:10200000591B99F0593F50F4503E68F11A16F040B0
:10201000A22F232F342F4427585FF3CF46953795AF
:102020002795A795F0405395C9F77EF41F16BA0B74
:10203000620B730B840BBAF09150A1F0FF0FBB1F22
:10204000661F771F881FC2F70EC0BA0F621F731F6B
:10205000841F48F4879577956795B795F7959E3FC8
:1020600008F0B0CF9395880F08F09927EE0F979559
:1020700087950895DF93DD27B92FBF7740E85FE3A9
:102080001616170648075B0718F4D92F0E9441124D
:102090009F938F937F936F930E94FC12E8E6F0E08A
:1020A0000E94CD110E9402122F913F914F915F919A
:1020B0000E945C12DD2351F09058A2EA2AED3FE025
:1020C00049EC5FE3D0785D270E94E50FDF910C9427
:1020D00002120E94901108F481E008950E9482107B
:1020E0000C9402120E94FB1158F00E94F41140F06F
:1020F00029F45F3F29F00C94B41151110C9436125D
:102100000C94BA110E94131268F39923B1F355236A
:1021100091F3951B550BBB27AA27621773078407FA
:1021200038F09F5F5F4F220F331F441FAA1FA9F390
:1021300035D00E2E3AF0E0E832D091505040E6957E
:10214000001CCAF72BD0FE2F29D0660F771F881FDF
:10215000BB1F261737074807AB07B0E809F0BB0BD2
:10216000802DBF01FF2793585F4F3AF09E3F5105E6
:1021700078F00C94B4110C9436125F3FE4F3983E5F
:10218000D4F3869577956795B795F7959F5FC9F7CF
:10219000880F911D9695879597F90895E1E0660F50
:1021A000771F881FBB1F621773078407BA0720F0C9
:1021B000621B730B840BBA0BEE1F88F7E095089532
:1021C0000E941B1288F09F5798F0B92F9927B7519A
:1021D000B0F0E1F0660F771F881F991F1AF0BA95CB
:1021E000C9F714C0B13091F00E943512B1E00895E2
:1021F0000C943512672F782F8827B85F39F0B93FD4
:10220000CCF3869577956795B395D9F73EF490957D
:102210008095709561957F4F8F4F9F4F089597FBE5
:1022200016F40E94BD110C945311E89409C097FB59
:102230003EF490958095709561957F4F8F4F9F4F9D
:102240009923A9F0F92F96E9BB279395F6958795E1
:1022500077956795B795F111F8CFFAF4BB0F11F4A4
:1022600060FF1BC06F5F7F4F8F4F9F4F16C088234B
:1022700011F096E911C0772321F09EE8872F762F81
:1022800005C0662371F096E8862F70E060E02AF0C2
:102290009A95660F771F881FDAF7880F96958795AE
:1022A00097F90895E894F92F96EBFF2381F0121621
:1022B00013061406440B9395F695879577956795C5
:1022C00057954040FF23B9F71BC0992708958823ED
:1022D00051F49850D2F7872B762F652F542F432F28
:1022E000322F20E0B1F3121613061406440B882394
:1022F0003AF09A95440F551F661F771F881FCAF73B
:1023000055234AF4440F551F11F460FF04C06F5F5A
:102310007F4F8F4F9F4F880F9695879597F9089518
:10232000990F0008550FAA0BE0E8FEEF16161706E6
:10233000E807F907C0F012161306E407F50798F04E
:10234000621B730B840B950B39F40A2661F0232B67
:10235000242B252B21F408950A2609F4A140A695E3
:102360008FEF811D811D089597F99F6780E870E0C8
:1023700060E008959FEF80EC0895909580957095AA
:10238000609550954095309521953F4F4F4F5F4F49
:102390006F4F7F4F8F4F9F4F0895DF93CF931F93C2
:1023A0000F93FF92EF92DF927B018C01689406C03D
:1023B000DA2EEF010E945C12FE01E894A5912591AE
:1023C000359145915591A6F3EF010E94E50FFE016D
:1023D0009701A801DA9469F7DF90EF90FF900F91D1
:1023E0001F91CF91DF91089500240A9416161706C5
:1023F00018060906089500240A94121613061406F6
:1024000005060895092E0394000C11F4882352F058
:10241000BB0F40F4BF2B11F460FF04C06F5F7F4F10
:102420008F4F9F4F089557FD9058440F551F59F0F7
:102430005F3F71F04795880F97FB991F61F09F3FB1
:1024400079F087950895121613061406551FF2CFDA
:102450004695F1DF08C0161617061806991FF1CF2A
:1024600086957105610508940895E894BB27662751
:102470007727CB0197F908950E94901108F48FEF08
:1024800008959B01AC0160E070E080E89FE30C944C
:102490006E100E945C120C9402120E94F41138F02B
:1024A0000E94FB1120F0952311F00C94B4110C94B0
:1024B000BA1111240C9436120E94131270F3959FD6
:1024C000C1F3950F50E0551F629FF001729FBB272B
:1024D000F00DB11D639FAA27F00DB11DAA1F649FC7
:1024E0006627B00DA11D661F829F2227B00DA11D7A
:1024F000621F739FB00DA11D621F839FA00D611D00
:10250000221F749F3327A00D611D231F849F600D20
:10251000211D822F762F6A2F11249F5750409AF049
:10252000F1F088234AF0EE0FFF1FBB1F661F771FD5
:10253000881F91505040A9F79E3F510580F00C94A0
:10254000B4110C9436125F3FE4F3983ED4F38695B1
:1025500077956795B795F795E7959F5FC1F7FE2B40
:10256000880F911D9695879597F9089519F416F49B
:102570000C94BA110C9405130E941B12B8F3992302
:10258000C9F3B6F39F57550B87FF0E94131300241E
:10259000A0E640EA900180585695979528F4805C13
:1025A000660F771F881F20F026173707480730F47B
:1025B000621B730B840B202931294A2BA695179493
:1025C0000794202531254A2758F7660F771F881F63
:1025D00020F026173707480730F4620B730B840B83
:1025E000200D311D411DA09581F7B901842F91580F
:1025F000880F9695879508959B01AC010C9449121C
:102600000E949011880B990B08959F3F31F09150D3
:1026100020F4879577956795B795880F911D9695C6
:10262000879597F9089591505040660F771F881F3E
:10263000D2F70895DB018F939F930E944C13BF91B3
:10264000AF91A29F800D911DA39F900DB29F900D01
:1026500011240895A1E21A2EAA1BBB1BFD010DC077
:10266000AA1FBB1FEE1FFF1FA217B307E407F50742
:1026700020F0A21BB30BE40BF50B661F771F881F1E
:10268000991F1A9469F760957095809590959B01B4
:10269000AC01BD01CF0108950E94E814A59F900DE3
:1026A000B49F900DA49F800D911D11240895B7FF34
:1026B0000C944C130E944C13821B930B0895DF93D0
:1026C000CF931F930F939A9DF02D219FF00D8B9D1B
:1026D000F00D8A9DE02DF10D039FF00D029FE00D9E
:1026E000F11D4E9DE00DF11D5E9DF00D4F9DF00D15
:1026F0007F936F93BF92AF925F934F93D5010E94E8
:10270000E8148B01AC01D7010E94E814EB01E80F3B
:10271000F91FD6010E94AE132F913F91D6010E945E
:10272000E814C60FD71FE81FF91FAF91BF910E9491
:10273000AE132F913F910E94E814C60FD71FE81FD8
:10274000F91FD6010E94E814E60FF71F9801BE0199
:10275000CF010F911F91CF91DF9108950E94E8144E
:10276000460F571FC81FD91F08F431960895689463
:1027700001C0E894F92FF12B12F00C94EB13A0E0B8
:10278000B0E0E5ECF3E10C945D14092E059422F41D
:102790000E944714112392F4F0E80F26FFEFE09413
:1027A000F09400951095B094C094D094A194BF0A71
:1027B000CF0ADF0AEF0AFF0A0F0B1F0B0E94F61366
:1027C00007FC0E944714CDB7DEB7ECE00C947914F7
:1027D000689401C0E8948F929F92CF93DF930E94F8
:1027E000F613DF91CF919F908F90089588249924BC
:1027F000F401E401B0E49F93AA279A158B049C048A
:10280000ED05FE05CF05D007A10798F4AD2FDC2F0D
:10281000CF2FFE2FE92D982C892E982F872F762FDA
:10282000652F542F432F322F2227B85031F7BF91F5
:1028300027C01B2EBF91BB27220F331F441F551FDC
:10284000661F771F881F991F881C991CEE1FFF1F8A
:10285000CC1FDD1FAA1FBB1F8A149B04EC05FD05BE
:10286000CE05DF05A007B10748F08A189B08EC09E0
:10287000FD09CE09DF09A00BB10B21601A94E1F626
:102880002EF49401AF01BE01CD01000C08956095B6
:1028900070958095909530954095509521953F4F36
:1028A0004F4F5F4F6F4F7F4F8F4F9F4F08952F9226
:1028B0003F924F925F926F927F928F929F92AF92D0
:1028C000BF92CF92DF92EF92FF920F931F93CF931D
:1028D000DF93CDB7DEB7CA1BDB0B0FB6F894DEBFB4
:1028E0000FBECDBF09942A88398848885F846E84DA
:1028F0007D848C849B84AA84B984C884DF80EE8024
:10290000FD800C811B81AA81B981CE0FD11D0FB62C
:10291000F894DEBF0FBECDBFED010895002E083044
:1029200090F0982F872F762F652F542F432F322F1B
:1029300022270850F4CF220F331F441F551F661F54
:10294000771F881F991F0A95B2F7002D089597FDEC
:102950001094002E083098F00850232F342F452F64
:10296000562F672F782F892F912DF4CF1594979597
:1029700087957795679557954795379527950A9544
:10298000AAF71124002D08952A0D3B1D4C1D5D1D35
:102990006E1D7F1D801F911F08952A193B094C0948
:1029A0005D096E097F09800B910B08950024A7FD36
:1029B00000942A1730054005500560057005800514
:1029C00090050895EE0FFF1F0590F491E02D0994F6
:1029D000A29FB001B39FC001A39F700D811D112460
:1029E000911DB29F700D811D1124911D0895F894C1
:1029F000FFCF000080400000804000000000150272
:102A00007501A2016202D301B101C50100000000FD
:102A10000C04DF034004CF03C9009900D0030D0A62
:102A200000496E697469616C697A696E67206361D7
:102A30006C6962726174696F6E732E2E2E0052651E
:102A4000666572656E636520707265737375726515
:102A50002063616C63756C617465640041636365D8
:102A60006C65726174696F6E2063616C696272611A
:102A700074696F6E2066696E697368656400477972
:102A8000726F73636F70652063616C6962726174E9
:102A9000696F6E2066696E697368656400416C6C6D
:102AA0002063616C6962726174696F6E732066691C
:102AB0006E69736865642E2E2E006E616E00696EFD
:062AC00066006F7666005F
:107E0000112484B714BE81FFF0D085E080938100F7
:107E100082E08093C00088E18093C10086E0809377
:107E2000C20080E18093C4008EE0C9D0259A86E02C
:107E300020E33CEF91E0309385002093840096BBD3
:107E4000B09BFECF1D9AA8958150A9F7CC24DD24C4
:107E500088248394B5E0AB2EA1E19A2EF3E0BF2EE7
:107E6000A2D0813461F49FD0082FAFD0023811F036
:107E7000013811F484E001C083E08DD089C08234E0
:107E800011F484E103C0853419F485E0A6D080C0E4
:107E9000853579F488D0E82EFF2485D0082F10E0AE
:107EA000102F00270E291F29000F111F8ED06801E7
:107EB0006FC0863521F484E090D080E0DECF843638
:107EC00009F040C070D06FD0082F6DD080E0C81688
:107ED00080E7D80618F4F601B7BEE895C0E0D1E017
:107EE00062D089930C17E1F7F0E0CF16F0E7DF06D8
:107EF00018F0F601B7BEE89568D007B600FCFDCFD4
:107F0000A601A0E0B1E02C9130E011968C91119780
:107F100090E0982F8827822B932B1296FA010C0160
:107F200087BEE89511244E5F5F4FF1E0A038BF0790
:107F300051F7F601A7BEE89507B600FCFDCF97BE46
:107F4000E89526C08437B1F42ED02DD0F82E2BD052
:107F50003CD0F601EF2C8F010F5F1F4F84911BD097
:107F6000EA94F801C1F70894C11CD11CFA94CF0C13
:107F7000D11C0EC0853739F428D08EE10CD085E9AC
:107F80000AD08FE07ACF813511F488E018D01DD067
:107F900080E101D065CF982F8091C00085FFFCCF94
:107FA0009093C60008958091C00087FFFCCF809118
:107FB000C00084FD01C0A8958091C6000895E0E648
:107FC000F0E098E1908380830895EDDF803219F02E
:107FD00088E0F5DFFFCF84E1DECF1F93182FE3DFCA
:107FE0001150E9F7F2DF1F91089580E0E8DFEE27F6
:047FF000FF270994CA
:027FFE00040479
:00000001FF
